:020000040800F2
:10000000D85100200D03000877200008DD1E0008ED
:100010007520000843060008F126000800000000D3
:100020000000000000000000000000004D02000879
:100030000107000800000000A9020008A92200082A
:1000400027030008270300082703000827030008E8
:1000500027030008270300082703000827030008D8
:1000600027030008270300082703000827030008C8
:1000700027030008270300082703000827030008B8
:1000800027030008270300082703000827030008A8
:100090004506000827030008270300082703000877
:1000A0002703000827030008270300082703000888
:1000B0002703000827030008270300082703000878
:1000C0002703000827030008270300082703000868
:1000D00027030008D9260008270300082703000883
:1000E0002703000827030008270300082703000848
:1000F0002703000827030008270300082703000838
:100100002703000827030008270300082703000827
:1001100027030008270300086923000827030008B5
:1001200027030008270300085106000827030008DA
:1001300027030008270300082703000827030008F7
:1001400027030008270300082703000827030008E7
:1001500027030008270300082703000827030008D7
:1001600027030008270300082703000827030008C7
:1001700027030008270300082703000800000000E9
:1001800027030008270300082703000827030008A7
:100190002703000827030008270300082703000897
:1001A00000000000000000002703000800F002F833
:1001B00000F03CF80AA090E8000C82448344AAF1C5
:1001C0000107DA4501D100F031F8AFF2090EBAE8C3
:1001D0000F0013F0010F18BFFB1A43F0010318477B
:1001E000E03E0000003F0000103A24BF78C878C10C
:1001F000FAD8520724BF30C830C144BF04680C602D
:10020000704700000023002400250026103A28BF74
:1002100078C1FBD8520728BF30C148BF0B60704778
:100220001FB503F009FF1FBD10B510BD00F0D0F9D8
:100230001146FFF7F5FF02F071FA00F0EEF903B492
:10024000FFF7F2FF03BC00F0F5F900002C4B196832
:100250000868B0E8F04F80F30988BFF36F8F4FF064
:10026000000080F311887047000000000848006813
:10027000006880F308884FF0000080F3148862B6AD
:1002800061B6BFF34F8FBFF36F8F00DF00BF00BFBA
:1002900008ED00E0DFF80C00016841F47001016036
:1002A000704700BF88ED00E0EFF30980BFF36F8F68
:1002B000134B1A681EF0100F08BF20ED108A20E9BA
:1002C000F04F106009B44FF0500080F31188BFF375
:1002D0004F8FBFF36F8F03F081F94FF0000080F371
:1002E000118809BC19680868B0E8F04F1EF0100FBB
:1002F00008BFB0EC108A80F30988BFF36F8F704796
:1003000018000020EFF3058070470000094880477F
:1003100009480047FEE7FEE7FEE7FEE7FEE7FEE7E7
:10032000FEE7FEE7FEE7FEE704480549054A064BFF
:100330007047000059230008AD010008D84B002089
:10034000D8510020D84D0020D84D002053EA020C8F
:1003500000F069802DE9F04B4FF00006002B1FBF25
:10036000B3FA83F503FA05F424FA05F65E4012BFEA
:100370001643B2FA82F502FA05F4C5F120051EBF54
:1003800022FA05FC44EA0C04203556EA044C4FEAF4
:10039000144418BF641C4FF000084FF0000990424D
:1003A00071EB030C39D3002919BFB1FA81F701FAB7
:1003B00007F6B0FA80F700FA07F6C7F120071EBF6C
:1003C00020FA07FC46EA0C062037B6FBF4FCA7EB44
:1003D0000507103F07F01F0BCBF120060CFA0BFBB3
:1003E0002CFA06F644BFB3460026202FA4BF5E4673
:1003F0004FF0000B5BEA060C08BF4FF0010B19EB46
:100400000B09ABFB027C48EB0608C01B06FB02CCC9
:100410000BFB03CC71EB0C01C1E70B4602464146D6
:100420004846BDE8F08B13B54FF000004FF00001D7
:10043000AFF30080BDE81C407047032A40F23080D3
:1004400010F0030C00F0158011F8013BBCF1020F15
:10045000624498BF11F801CB00F8013B38BF11F896
:10046000013BA2F1040298BF00F801CB38BF00F8AD
:10047000013B11F0030300F07980083AC0F00880D6
:1004800051F8043B083A51F804CBA0E80810F5E70E
:10049000121D5CBF51F8043B40F8043BAFF30080F1
:1004A000D20724BF11F8013B11F801CB48BF11F866
:1004B000012B24BF00F8013B00F801CB48BF00F836
:1004C000012B704702F0FF0343EA032242EA024293
:1004D00000F002B84FF000020429C0F0128010F0C2
:1004E000030C00F01B80CCF1040CBCF1020F18BF10
:1004F00000F8012BA8BF20F8022BA1EB0C0100F0A3
:100500000DB85FEAC17C24BF00F8012B00F8012B75
:1005100048BF00F8012B70474FF0000200B51346AA
:1005200094469646203922BFA0E80C50A0E80C5013
:10053000B1F12001BFF4F7AF090728BFA0E80C50C4
:1005400048BF0CC05DF804EB890028BF40F8042BBD
:1005500008BF704748BF20F8022B11F0804F18BF2A
:1005600000F8012B704770477047704710B5203A6C
:10057000C0F00B80B1E81850203AA0E81850B1E85C
:100580001850A0E81850BFF4F5AF5FEA027C24BF12
:10059000B1E81850A0E8185044BF18C918C0BDE809
:1005A00010405FEA827C24BF51F8043B40F8043BD2
:1005B00008BF7047D20728BF31F8023B48BF11F887
:1005C000012B28BF20F8023B48BF00F8012B7047E1
:1005D000754600F02BF8AE4605006946534620F0FC
:1005E0000700854618B020B5FFF79EFEBDE8204005
:1005F0004FF000064FF000074FF000084FF0000BDF
:1006000021F00701AC46ACE8C009ACE8C009ACE891
:10061000C009ACE8C0098D46704710B50446AFF379
:1006200000802046BDE81040FFF709BE0048704733
:10063000784B002001491820ABBEFEE726000200DF
:100640007047FEE7014800F05FB800009C00002002
:10065000014800F089BA0000540100200168182305
:10066000CAB2103AB2FBF3F2054B6FF30901032A49
:100670009B5CC36500D9091D816508467047000071
:100680008C40000810B5014600208B698A6A4FF043
:10069000C07453B1B3F5005F15D072B1012A0CD00C
:1006A000022A0AD0032A09D104E01AB1012A06D08D
:1006B000022A03D1C96AC90100D5012010BDC96A47
:1006C000A142FAD010BD002AF7D0012AF2D0022AA6
:1006D000F3D0032AF3D010BD30B50468256825F4A3
:1006E00080252560046863608368402B036803D01D
:1006F00099600068C26030BD9A600068C16030BD1A
:10070000704772B6FEE770472DE9F05F0546006856
:1007100000244669D0F804908768D0F80CB0D0F86F
:1007200010A0D0F81880F10748D0F90714D00121A3
:100730008160B80703D5284600F0B4F90CE07807CB
:1007400002D54FF4006407E0380702D54FF4805417
:1007500002E0284600F0A5F9F80516D529684FF4FF
:1007600080708860B80503D5284600F09DF90CE03C
:10077000780502D544F4005407E0380502D544F466
:10078000804402E0284600F08EF9F80316D5296867
:100790004FF480308860B80303D5284600F086F90E
:1007A0000CE0780302D544F4004407E0380302D596
:1007B00044F4803402E0284600F077F9300707D58A
:1007C0005FEACB6004D52968102044F40074C86047
:1007D00070074FF0080707D55FEA0B7004D528684B
:1007E000C760284600F058F9B00706D52868C068E9
:1007F000800702D0284600F050F9700607D55FEA5E
:10080000CA6004D52968102044F480640861B006E9
:1008100007D55FEA0A7004D528680761284600F00A
:100820003DF9F00606D528680069800702D0284601
:1008300000F035F9B00308D55FEAC96005D529682D
:1008400010204860284600F02BF9F00307D55FEA36
:10085000097004D528684760284600F028F930045C
:1008600046D55FEA497040D5F00504D55FEAC87007
:1008700001D044F00104B00504D55FEA887001D5C9
:1008800044F00204700504D55FEA487001D544F0D5
:100890000404300529D518F0700F26D008F0700038
:1008A000402815D006DC102809D020280AD030288E
:1008B00016D10AE050280ED0602811D10EE044F085
:1008C00008040DE044F010040AE044F0200407E0BE
:1008D00044F0400404E044F0800401E044F48074F7
:1008E0002868816921F070018161296804204860CD
:1008F000002C05D0686A204368622846FFF703FF92
:10090000BDE8F09F70B5040003D094F8200010B14A
:1009100004E0012070BD204600F082F820680168E4
:1009200041F00101016000F097FB0546052604E057
:1009300000F092FB401B0A2811D820684068C007CD
:10094000F6D02068016821F00201016000F084FB0C
:1009500005460BE000F080FB401B0A2806D9606AC0
:1009600040F40030606284F82060D2E7206840687C
:100970008007EFD4207E0128206801683DD021F057
:1009800080010160607E01282068016838D021F074
:1009900040010160A07E01282068016833D021F069
:1009A00020010160E07E0128206801682ED041F01E
:1009B00010010160207F01282068016829D021F002
:1009C00008010160607F01282068016824D021F0BF
:1009D00004010160D4E902010843D4E9041211437F
:1009E00008436168491E08432168C86100206062AD
:1009F000012084F82000002070BD41F08001C0E794
:100A000041F04001C5E741F02001CAE721F01001A3
:100A1000CFE741F00801D4E741F00401D9E7000035
:100A200010B586B0044614216846FFF775FD1749D6
:100A30002068884227D116480021026842F00072DF
:100A40000260006800F000700590114810380268DC
:100A500042F0080202600068022200F008000590DF
:100A60000320CDE90210CDE9000209200490694677
:100A7000084800F0D7F900220521142000F08AFB75
:100A8000142000F079FB06B010BD000000640040A7
:100A900040380240000C0240704770477047704772
:100AA000704770477047704770477047704770478E
:100AB0002DE9F0410446876D00F0CEFA064694F821
:100AC00035000025022806D08020606584F8345067
:100AD0000120BDE8F0812068016821F01601016065
:100AE0002068416921F080014161206C08B9A06C47
:100AF00020B12068016821F00801016020680168C8
:100B000021F0010101600CE000F0A6FA801B05282D
:100B100007D920206065032084F8350084F834501C
:100B2000D7E720680068C007EED194F85C103F203A
:100B30008840B860012084F8350084F834500020E3
:100B4000C7E790F83510022903D0802141650120C4
:100B50007047052180F835100068016821F0010117
:100B600001600020704700002DE9F84304464FF073
:100B70000009CDF8009063484FF41651A56D006848
:100B8000B0FBF1F72E6894F85C10082000FA01F130
:100B900031420FD021680A6852070BD50A6822F04B
:100BA00004020A6094F85C108840A860606D40F010
:100BB0000100606594F85C104FF0010808FA01F03C
:100BC000304208D021684969090604D5A860606DE3
:100BD00040F00200606594F85C10042088403042C8
:100BE00008D021680968890704D5A860606D40F0C5
:100BF0000400606594F85C1010208840304218D0E2
:100C000021680968090714D5A860206801684903AC
:100C100004D50068000308D5A16C07E00168C90588
:100C200003D4016821F008010160216C09B120465C
:100C3000884794F85C1020208840304231D02168E9
:100C40000968C9062DD5A86094F8350005282068E4
:100C5000016806D0490347D5006800031DD4616CC4
:100C60001CE021F0160101602068416921F080013B
:100C70004161206C08B9A06C20B12068016821F0A6
:100C80000801016094F85C103F208840A86084F857
:100C9000358084F83490216D1FE0E16B09B1204666
:100CA0008847606D00282BD0606DC00714D00520E8
:100CB00084F835002068016821F001010160009886
:100CC000401C0090B84203D820680068C007F6D1E5
:100CD00084F8358084F83490E16C002910D001B09C
:100CE0002046BDE8F04308470168C905D5D401682E
:100CF00021F01001016084F8358084F83490CCE74D
:100D0000BDE8F883140000202DE9F041044600F00E
:100D1000A3F906465CB1022084F83500002584F86A
:100D200034502068016821F0010101600DE00120CC
:100D3000BDE8F08100F090F9801B052805D920203E
:100D40006065032084F83500F2E720680068C0077A
:100D5000F0D12268116820480140D4E9010318430A
:100D6000D4E903363343184363691843A36918432E
:100D7000E3691843236A18430843616A042903D1CD
:100D8000D4E90B1319430843106020684069666A70
:100D900020F0070130460E43012704280CD1A06A39
:100DA0000643E06A40B12046FFF76CFC20B14020CA
:100DB000606584F83570BAE7206846612046FFF721
:100DC0004DFC94F85C203F2191408160656584F87A
:100DD00035700020ACE700003F8010F070B504468D
:100DE00090F83400002501280CD0012084F834004C
:100DF00094F835600020012E06D084F834000225D6
:100E0000284670BD022070BD022684F835606065FA
:100E10002046FFF761FC2068016841F00101016094
:100E2000EEE700002DE9F84FDFF8F8A100220124D9
:100E300003254FF00F090AF1040BAAF1040E00BFBD
:100E40000B6804FA02F63340B34270D10F7907F011
:100E50000307012F01D0022F16D187684FEA4208FD
:100E600005FA08FC27EA0C07D1F80CC00CFA08FCBC
:100E70004CEA070CC0F808C04768B7430E79C6F3C0
:100E8000001696403E4346600E79F643B6070AD0F8
:100E9000C7684FEA420C05FA0CF6B7438E6806FAAB
:100EA0000CF63E43C6600E7906F00306022E10D102
:100EB000D60800EB8608D8F8206057074FEAD76CB1
:100EC00009FA0CF7BE430F6907FA0CF73743C8F865
:100ED000207006684FEA420C05FA0CF7BE430F7902
:100EE00007F0030707FA0CF7374307604E6816F45C
:100EF000403F1CD04C4E376847F480473760366817
:100F000022F0030706F480460096484E07EB060CD5
:100F1000DCF8086897073F0F09FA07F826EA080681
:100F2000DFF80C81404503D14FF0000841E072E04A
:100F3000DFF80081404502D14FF0010839E0DFF8C9
:100F4000F880404502D14FF0020832E0DFF8EC8033
:100F5000404502D14FF003082BE0DFF8E480404524
:100F600002D14FF0040824E0DFF8D880404502D1D8
:100F70004FF005081DE0DFF8D080404502D14FF06A
:100F8000060816E0DFF8C480404502D14FF007089C
:100F90000FE0DFF8BC80404502D14FF0080808E0C0
:100FA000DFF8B080404502D14FF0090801E04FF072
:100FB0000A0808FA07F848EA0608CCF80888DAF8B8
:100FC00000605746D1F804C09E435FEACC2C00D5A0
:100FD0001E433E60DBF800605F46D1F804C09E43CC
:100FE0005FEA8C2C00D51E433E60DEF80060774639
:100FF000D1F804C09E435FEA8C3C00D51E433E609E
:10100000084F083F3E68D1F804C09E435FEACC3CDD
:1010100000D51E433E60521C102AFFF411AFBDE8FC
:10102000F88F0000083C0140443802400030014085
:10103000000002400004024000080240000C024090
:10104000001002400014024000180240001C024040
:1010500000200240002402400148806870470000E0
:1010600008000020024881680278114481607047BE
:10107000080000200B4810B5016841F400710160C0
:10108000016841F480610160016841F48071016090
:10109000032000F09FF80F2000F006F800F050F851
:1010A000002010BD003C024030B505461F4887B007
:1010B0000024016841F010010160006806A900F0F9
:1010C0001000009001A800F031F90498A8B100F0D8
:1010D0004DF940001649174AB0FBF1F11648491E78
:1010E000026040F2E732C0E90324C0E901148461E0
:1010F00000F08EFB040003D015E000F037F9E9E7BB
:101100000D4800F0C7FB04000DD1362000F034F884
:10111000102D07D200222946362000F03BF8074860
:10112000056000E0012407B0204630BD4038024091
:1011300040420F0000100040B40100200C000020CD
:101140000C4882B0016841F480410160006800F4FD
:10115000804000900748001F016841F08051016005
:101160000068002200F0805000900F21901E02B015
:1011700000F010B844380240002809DB00F01F02DC
:10118000012191404009800000F1E020C0F80011E9
:1011900070470000F0B40E4B1B680C46C3F30223EB
:1011A000C3F10705042D00D90425191D072901D213
:1011B000002300E0DB1E012606FA05F1491E21404E
:1011C00099409E40761E16403143F0BC01F091BA22
:1011D0000CED00E0064900F0070208684FF6FF0337
:1011E000184040EA0220034A10430860704700009C
:1011F0000CED00E00000FA052DE9F0470E46050071
:1012000065D0DFF81481D8F80000F7B200F00F00C5
:10121000B04207D288F80070D8F8000000F00F0044
:10122000B04254D128683D4C810712D5400703D500
:10123000206840F4E05020602878000703D520683B
:1012400040F4604020602068A96820F0F000084366
:1012500020602878C0072DD03049686808390128F7
:1012600012D0022813D0032811D009688907002959
:101270002DDA216821F0030101432160FFF7ECFE24
:10128000814641F2883A0EE009688903EFE7096870
:101290008901ECE7FFF7E0FEA0EB0901514502D917
:1012A0000320BDE8F0872068696800F00C00B0EB0F
:1012B000810FEFD1D8F80010404601F00F01B14284
:1012C00007D90770006800F00F00B04201D001207C
:1012D000E7E72878400705D52068E96820F4E05062
:1012E000084320602878000706D52068296920F483
:1012F000604040EAC100206000F058F82168084AC8
:10130000C1F30311515CC8400649086006480068F3
:10131000FFF7CAFE0020C4E7003C02400838024044
:1013200094400008140000200C0000200F220260EE
:101330000C4A136803F003034360136803F0F003DF
:101340008360136803F4E053C36012684FF4E05302
:1013500003EAD20202610448006800F00F0008604E
:101360007047000008380240003C0240044805492C
:1013700000680968044AC1F38221515CC840704783
:101380001400002008380240A44000080448054921
:1013900000680968044AC1F34231515CC840704793
:1013A0001400002008380240A4400008154810B579
:1013B000006810F00C02144813D01449042A0FD00E
:1013C000082A0ED10F4C241F2268236802F03F0226
:1013D0005B0207D52068C0F38810A0FB010106E07E
:1013E000084610BD2168C1F38811A1FB000100234C
:1013F000FEF7ACFF2168C1F30141491C4900B0FB75
:10140000F1F010BD083802400024F400001BB700C2
:101410002DE9F84F04006ED02078DFF84C93C00718
:10142000A9F104054AD009F104000168C1F3810162
:10143000012908D00068C0F3810002280AD1D9F838
:101440000000400206D52868800337D56068002870
:10145000E1D033E06068B0F5803F10D0B0F5A02F48
:10146000286810D020F480302860286820F480207C
:1014700028606068A8B1FFF7EFFD06460DE0286818
:1014800040F48030F4E740F480202860F7E700BFA4
:10149000FFF7E2FD801B642873D828688003F7D526
:1014A0000CE0FFF7D9FD064605E000BFFFF7D4FDCD
:1014B000801B6428F0D828688003F7D42078DFF8F0
:1014C000AC8280074FF0000A3ED5A748001D016896
:1014D00011F00C0F08D00068C0F3810002280BD176
:1014E000D9F80000400207D42868800716D5E068C4
:1014F000012800D112E033E1E068B8B10120C8F85A
:101500000000FFF7A9FD064605E000BFFFF7A4FDB8
:10151000801B0228C0D828688007F7D52868216971
:1015200020F0F80040EAC10028600DE0C8F800A0F3
:10153000FFF792FD064604E0FFF78EFD801B0228B0
:101540001FD828688007F7D42078000722D5864F57
:1015500087486169703771B101210160FFF77CFD37
:10156000064604E0FFF778FD801B022809D838689A
:101570008007F7D50EE0C0F800A0FFF76DFD064626
:1015800005E082E0FFF768FD801B02287DD83868FF
:101590008007F7D42078400768D5DFF8CCB1002762
:1015A0000BF13C0BDBF80000C0000BD4DBF80010A3
:1015B00041F08051CBF80010DBF80000012700F06B
:1015C000805000906B4E3068C00510D4306840F4F5
:1015D00080703060FFF740FD009005E0FFF73CFDB4
:1015E0000099401A022850D83068C005F6D55E4EE2
:1015F000A0686C3601280FD00528306810D020F084
:1016000001003060306820F004003060A068B8B19C
:10161000FFF722FD00900FE0306840F00100F4E792
:1016200040F004003060F7E7FFF716FD0099411A1B
:1016300041F28830814266D830688007F4D50EE0E8
:10164000FFF70AFD009007E0FFF706FD0099411A39
:1016500041F28830814256D830688007F4D42FB1E7
:10166000DBF8001021F08051CBF80010A069C8B35E
:101670003D49091D0968C1F3810102294AD00228A8
:10168000504607D0C8F8600000E03CE0FFF7E4FCFB
:1016900004463BE04746C8F86000FFF7DDFC06461D
:1016A00005E000BFFFF7D8FC801B02282BD8286874
:1016B0008001F7D4D4E907010843A16A2E4A4908FA
:1016C00002EB0141626A41EA8211084394F82C104E
:1016D00040EA0161C9F8001001203866FFF7BCFC40
:1016E000044606E03EE000BFFFF7B6FC001B022800
:1016F00009D828688001F7D534E000BFFFF7ACFCBB
:10170000001B022802D90320BDE8F88F2868800159
:10171000F4D427E00128F7D0D9F80000E26900F4FA
:10172000800191421CD1226A00F03F01914217D101
:1017300047F6C071626A0140B1EB821F10D1A26A04
:101740004FF0FF3300F4403103EB5202B1EB024F94
:1017500006D194F82C1000F07060B0EB016F01D04E
:101760000120D1E70020CFE70438024000004742C3
:10177000800E4742007000400000FFFF7047704736
:1017800070B590F83C20012A32D0012480F83C400A
:10179000022280F83D2003685A689D6822F0700696
:1017A0000A6832435A60134B02689A4214D0B2F16D
:1017B000804F11D0104B9A420ED0104B9A420BD052
:1017C0000F4B9A4208D00F4B9A4205D00E4B9A42CB
:1017D00002D00E4B9A4204D1496825F08003194388
:1017E000916080F83D40002180F83C10084670BDB3
:1017F000022070BD000001400004004000080040CD
:10180000000C00400004014000400140001800406E
:1018100010B5040003D094F83D0010B107E001209A
:1018200010BD002084F83C00204600F01FF8022084
:1018300084F83D00211D206800F09CFD012084F803
:10184000460084F83E0084F83F0084F8400084F8A5
:10185000410084F8420084F8430084F8440084F88E
:10186000450084F83D00002010BD000008B5006868
:101870000649884208D10648016841F0020101602A
:10188000006800F00200009008BD00000004004065
:101890004038024090F83D10012901D001207047E6
:1018A000022180F83D100168CA6842F00102CA6056
:1018B00000681149884214D0B0F1804F11D00F490F
:1018C00088420ED00E4988420BD00E49884208D07B
:1018D0000D49884205D00D49884202D00C49884202
:1018E00004D1816801F00701062903D0016841F0A5
:1018F0000101016000207047000001400004004029
:1019000000080040000C004000040140004001407D
:101910000018004070B5044690F83C0000250128EE
:1019200017D0012684F83C60022084F83D0020682E
:10193000826822F0770222F47F4282600868502891
:1019400038D00DDC20284FD005DC90B3102811D101
:101950004AE0022070BD302846D040280AD13BE042
:1019600060282FD070280DD0B0F5805F03D0B0F57F
:10197000005F12D0012584F83D60002084F83C000F
:10198000284670BDCB68D1E90121206800F05AFDDE
:101990002068816841F0770109E0CB68D1E9012135
:1019A000206800F04FFD2068816841F4804181602B
:1019B000E1E719E0CA684968206800F055FD502148
:1019C000206806E0CA684968206800F05EFD602172
:1019D000206800F041FDCEE7CA684968206800F041
:1019E00043FD40212068F4E7226801461046F0E7F5
:1019F00070472DE9F04104460068C66805694FF05C
:101A00000007A90713D5B10711D5F91E01610120FF
:101A10002077206880698007204602D0FFF7E8FF22
:101A200004E000F07EF8204600F07CF82777680795
:101A300016D5700714D521686FF0040008610220E4
:101A400020772068806910F4407F204602D0FFF79D
:101A5000CFFF04E000F065F8204600F063F8277738
:101A6000280715D5300713D521686FF008000861E5
:101A7000042020772068C0698007204602D0FFF745
:101A8000B7FF04E000F04DF8204600F04BF8277750
:101A9000E80616D5F00614D521686FF0100008612D
:101AA000082020772068C06910F4407F204602D0CB
:101AB000FFF79EFF04E000F034F8204600F032F813
:101AC0002777E80708D0F00706D021686FF00100FB
:101AD0000861204600F028F8280608D5300606D50B
:101AE00021686FF0800008612046FFF747FE680616
:101AF00008D5700606D521686FF0400008612046C1
:101B000000F01CF8A8060AD5B00608D521686FF0C9
:101B1000200008612046BDE8F041FFF730BEBDE877
:101B2000F08170477047000000680349884201D186
:101B3000FFF798BA704700000010004070477047E8
:101B400070470000F8B5016804460868CA684B6928
:101B500010F00F0F4FF0000559D003F0010602F40A
:101B60009077374365D0C10705D0D10503D5616CA7
:101B700041F001016164410705D5D90703D0616CCB
:101B800041F002016164810705D5D90703D0616C7A
:101B900041F004016164010707D502F020013143DF
:101BA00003D0616C41F008016164616C00293AD096
:101BB000800604D5900602D5204600F0A6FC2068D9
:101BC0004069616CC0F38010090700D460B32046FF
:101BD00000F074FC20684069400621D5206814306C
:101BE00050E8001F21F0400140E80012002AF5D122
:101BF000E06BA8B172490165E06BFEF7A2FF002817
:101C000011D0E06B016D01B0BDE8F04008478306DC
:101C10000FD593060DD52046BDE8F84000F075BC01
:101C20002046FFF78DFFF8BD2046FFF789FF65646A
:101C3000F8BD266B2023012E7ED1C6067CD5D606A4
:101C40007AD508684868009048694FF00206400657
:101C50004DD5E26B106840684FF480770004000CAB
:101C60003AD0A18D814237D9E085D069B8422DD0D4
:101C700020680C3050E8001F21F4807140E8001209
:101C8000002AF5D12068143050E8001F21F001012E
:101C900040E80012002AF5D12068143050E8001FF7
:101CA00021F0400140E80012002AF5D184F84230CA
:101CB000256320680C3050E8001F21F0100140E837
:101CC0000012002AF5D1E06BFEF7F2FE6663A08DEC
:101CD000E18D401A81B206E0A18D8142A8D1D06980
:101CE000B842A5D166632046FFF729FFF8BDA08D55
:101CF000E18D401A81B2E08D0028F7D00029F5D09F
:101D000020680C3050E8002F22F4907240E8002741
:101D1000002FF5D12068143050E8002F22F0010286
:101D200040E80027002FF5D184F842302563206871
:101D30000C3050E8002F00E006E022F0100240E8EE
:101D40000023002BF3D1CDE705062BD5150629D5A9
:101D500094F841002128C9D1A068B0F5805F01D175
:101D60002069B0B1206A411C216221680078486076
:101D7000E08C401E0004000CE084B7D12068C168EC
:101D800021F08001C1602068C16841F04001C1605C
:101D9000F8BD206A0088C0F308004860206A801CF3
:101DA0002062E5E74006F3D55006F1D5CA68204623
:101DB00022F04002CA6084F8413000F08EF8F8BD8D
:101DC000AF24000870B5040004D094F84100002549
:101DD00010B106E0012070BD84F84050204600F0AC
:101DE00023F8242084F841002068C16821F40051C0
:101DF000C160204600F0EAFB2068016921F49041AF
:101E000001612068416921F02A0141612068C168AF
:101E100041F40051C1606564202084F8410084F8D9
:101E200042006563002070BD70B586B0064614217F
:101E30006846FEF771FB23493068884240D122484A
:101E40000025016841F010010160006800F01000F9
:101E500005901D481438016841F0020101600068D6
:101E6000694600F002000590C02000900220CDE9F4
:101E7000010503200390072004901448FEF7D2FFC9
:101E8000144C134820604FF00060C4E90105401471
:101E9000C4E9035080106561C4E9065025622046FC
:101EA0006562FEF731FF08B1FEF72BFCF4630022F8
:101EB00005212520A663FFF76DF92520FFF75CF9C2
:101EC00006B070BD001001404438024000040240DA
:101ED000406402405401002070477047FEE7000054
:101EE0000F4810B50D4901600321416000214FF4F6
:101EF00010228160C0E903124FF4001242610176A2
:101F000041768176C17601774177FEF7FBFC0028A8
:101F100003D0BDE81040FEF7F4BB10BD00640040E4
:101F20009C000020094808B5016841F48001016067
:101F30000068002200F48000009005213A20FFF79D
:101F400029F9BDE808403A20FFF716B930380240B9
:101F500010B5074A0021074800F030FC064C044A3F
:101F6000002120602432054800F028FC606010BD8C
:101F700044400008A122000800000020E5300008CD
:101F8000114808B5016841F001010160016801F0E4
:101F900001010091016841F002010160016801F056
:101FA00002010091016841F008010160016801F03F
:101FB00008010091016841F080010160006800F0B3
:101FC0008000009008BD00003038024010B586B097
:101FD0000024174800940194029403940494134934
:101FE0000594016042F26B01C0E901144FF6FF71E4
:101FF000C0E903148461FFF70BFC08B1FEF781FB15
:102000004FF48050009069460948FFF783FC08B1FF
:10201000FEF777FB049404A905480594FFF7B0FB8D
:10202000002801D0FEF76DFB06B010BD0004004093
:10203000C40000200D4810B50B4901600C494160F7
:1020400000214FF40052C0E90212D21002610422B2
:10205000C0E90521C161FFF7B5FE002803D0BDE846
:102060001040FEF74EBB10BD001001400C010020D7
:10207000A0860100FEE7FEE730B58BB00546EFF322
:10208000108472B62C2206496846FEF7D6F904B9C8
:1020900062B62C2269462846FEF7CFF90BB030BD58
:1020A000F44A0020074882B0006801680A684A685C
:1020B0000092CA6842F01002CA602422024902B0AB
:1020C00001F022B898000020D04A002070B5002806
:1020D0001AD00029FCD0EFF3108472B60A780F2AC8
:1020E00010D14A7C6D4B5AB98A7C4AB9CA7C3AB93C
:1020F0000A7D2AB94A7D1AB98A7D0AB9CA7D22B1F8
:102100000A7EBAB3002C7DD0C6E00A88C2F30A0268
:10211000A2F5806202804A788D78D20842EA4512A0
:10212000C2F30A02A2F5806242808A78CD789209D1
:1021300042EA85020D7942EA8522C2F30A02A2F53B
:10214000806282800A794D79520842EAC512C2F350
:102150000A02A2F58062C2800A8AC2F30A02A2F5CC
:10216000806202814A79920982724979C1F3011130
:10217000C17285E001E062B68BE0B1F80120C2F3E4
:102180000A0282818A78CD78D20842EA4512C2F3E7
:102190000A02C281CA780D79920942EA85024D7914
:1021A00042EA8522C2F30A0202824A798D795208F4
:1021B00042EAC512C2F30A0242828A79CD79120933
:1021C00042EA0512C2F30A028282CA790D7AD20962
:1021D00042EA45024D7A42EA4522C2F30A02C2822D
:1021E0004A7A8D7A920842EA8512C2F30A02028381
:1021F0008A7ACD7A520942EAC50242838A89C2F3B9
:102200000A0200E047E082834A7B8D7BD20842EAE3
:102210004512C2F30A02C2838A7BCD7B920942EA4D
:1022200085020D7C42EA8522C2F30A0202840A7CFE
:102230004D7C520842EAC512C2F30A0242844A7C2B
:102240008D7C120942EA0512C2F30A0282848A7C5A
:10225000CD7CD20942EA45020D7D42EA4522C2F315
:102260000A02C2840A7D4D7D920842EA8512C2F3B9
:102270000A0202854A7D897D520942EAC1014185EF
:1022800006482C2219462C38FEF7D7F8002C3FF4CC
:1022900072AF012070BD62B6002070BD204B0020DF
:1022A000012000F050FAFBE710B54FF0E020006984
:1022B00001F00CFD012803D0BDE8104001F03ABA4E
:1022C00010BD000030B593B030216846FEF724F908
:1022D00014210CA8FEF720F91D480025016841F0E3
:1022E00080510160006800F0805011901948016829
:1022F00041F4404101600068022400F44040119024
:1023000001200090000401908001CDE906400620E4
:102310000890A820CDE9090404200B906846FFF737
:1023200077F808B172B6FEE70CA90F2081E83100FA
:102330004FF4A0500F904FF48050109005210CA83E
:10234000FEF75AFF002801D072B6FEE713B030BD89
:1023500040380240007000400248016841F47001BA
:102360000160704788ED00E00148FFF742BB0000C4
:10237000B4010020F0B50268274B284D284E294FA4
:10238000294C4FF0804C984209D0604507D0A842B4
:1023900005D0B04203D0B84201D0A04204D122F00F
:1023A000700E4A6842EA0E0298421BD0604519D06E
:1023B000A84217D0B04215D0B84213D0A04211D0D5
:1023C0001A4DA8420ED01A4DA8420BD0194DA84262
:1023D00008D0194DA84205D0184DA84202D0184D7A
:1023E000A84203D122F44075CA682A434D6922F0FD
:1023F00080022A438D68C5620D688562984201D0CB
:10240000A04201D109690163016841F00401016042
:10241000012141610260F0BD000001400004004064
:1024200000080040000C0040000401400040014052
:10243000004401400048014000180040001C0040DA
:102440000020004010B5846842EA032224F47F444F
:102450000A432243826010BD826822F070020A4360
:1024600042F007018160704710B5036A046A24F0E6
:1024700001040462846924F0F00444EA021423F0A5
:102480000A020A438461026210BD10B5036A046A3D
:1024900024F010040462846923F0A00324F470443F
:1024A00044EA023243EA01118261016210BD10B5B3
:1024B000806B0021C185FFF743FB10BD01680C3123
:1024C00051E8002F22F4907241E80023002BF5D14F
:1024D0000168143151E8002F22F0010241E8002385
:1024E000002BF5D1016B012909D101680C3151E8AC
:1024F000002F22F0100241E80023002BF5D120210B
:1025000080F8421000210163704708B590F842102E
:10251000222901D0022008BD82684FF480539A42DC
:1025200001D1016921B1816A9A421BD04AB10AE006
:102530000268816A5268C2F308020A80816A891CB3
:1025400008E0026972B10268526802F07F020A7004
:10255000816A491C8162C18D491E0904090CC1852B
:1025600003D01BE002685268F1E70168CA6822F0F4
:102570002002CA600168CA6822F48072CA600168D9
:102580004A6922F001024A61202180F842100021AC
:102590004163026B012A03D0FFF79EFC002008BDB7
:1025A000016301680C3151E8002F22F0100241E86C
:1025B0000023002BF5D101680A68D20602D50A680B
:1025C00049680091818DFFF7BAFAE7E770B50446D4
:1025D00000680169E26821F44051114301612169F9
:1025E000A068E26908436169114308432168CA6829
:1025F00049F20C639A430243CA6020684169A269A8
:1026000021F440711143416131492068884202D070
:102610003049884202D1FEF7B9FE01E0FEF7A6FE7E
:10262000E2690023192164253226B2F5004F626861
:1026300028D0A0FB0101930F9200FDF787FE014611
:10264000B0FBF5F06FF01802504301EB800006EB91
:102650000010B0FBF5F000F0F002B1FBF5F002EB7A
:102660000012B1FBF5F06FF01803584301EB800046
:1026700006EB0010B0FBF5F000F00F0021681044ED
:10268000886070BDA0FB010192185B41FDF75EFE02
:102690000146B0FBF5F00201B1FBF5F06FF0180355
:1026A000584301EB800006EBC000B0FBF5F000F0F2
:1026B000F80002EB4002B1FBF5F0584301EB80005B
:1026C00006EBC000B0FBF5F000F00700D6E7000015
:1026D000001001400014014010B5044800F044FD12
:1026E000BDE810400148FFF72DBA00000C010020A2
:1026F000FEE70907090E002804DB00F1E02080F85E
:102700000014704700F00F0000F1E02080F8141D65
:102710007047002801D0406880B27047FEF7AAFCDD
:10272000FFF7D0FDFFF72CFCFFF7FCFBFFF7D8FB12
:10273000FFF780FCFFF74AFC00F012F8FFF708FCF7
:1027400000F020F8FEE710B5EFF3058111B16FF04E
:10275000050403E0002408B100F08CFE204610BD03
:10276000EFF3058010B16FF0050070470448016871
:1027700011B14FF0FF307047012101600020704718
:102780006800002010B5EFF3058010B16FF0050070
:1027900010BD08480168012902D04FF0FF3010BD7C
:1027A000054A002182F8141D0221016000F0CAFED2
:1027B000002010BD680000200BE000E02DE9FF4183
:1027C0004FEA01034FF00005EFF30581039549BB84
:1027D00040B38027182100244AB3166806B1344656
:1027E00096691EB13146761E382E02D21679F6074A
:1027F00003D0002004B0BDE8F081566906B1B708E7
:10280000D2F808C0BCF1000F0DD0D5685C2D18D3EC
:1028100012693AB136B18DE806103A46214601F008
:102820002AFA03900DE0D6685EB912694AB903AA84
:10283000CDE90012BAB2214601F0F0F9012800D02A
:1028400003950398D6E700002DE9F041134C0F469D
:102850000546E6682068001D00F0D8FC681C07D11A
:1028600037B12168BDE8F0410D48091D00F01EBDDB
:1028700020683544B5424560216805D2A06BBDE8AB
:10288000F041091D00F0FABC606B091D00F0F6FC78
:10289000A06A854200D2A562BDE8F0811800002040
:1028A000EC0600202DE9F041054600F00BFD2D4C13
:1028B000A068401CA06020682B4F10B1606930B345
:1028C0002BE02560A068012827D1002606EB8600B2
:1028D00007EB800000F0C4FC761C382EF6D32348AA
:1028E00000F0BEFC2148143000F0BAFC1F4828302C
:1028F00000F0B6FC1D483C3000F0B2FC1B485030E4
:1029000000F0AEFC194860631430A06305E0206855
:10291000E96AC06A884200D82560606A401C60622B
:102920006864E86A2169884200D9206100EB800070
:1029300007EB8000291D00F0B9FC00F0E3FC6069A2
:1029400000280CD02068E96AC06A884207D208498A
:102950004FF080500860BFF34F8FBFF36F8FBDE81B
:10296000F0810000180000203C0200209C0600209E
:1029700004ED00E038B500F0A5FC104C2068C8B9A3
:102980000F4800F06DFC0E48143000F069FC0C4854
:10299000E060143020610A4B0020F03B009003F10E
:1029A000500210210A2000F0DBFE206010B105A1CA
:1029B00000F02AFDBDE8384000F0A4BC540000201F
:1029C000F0070020546D72510000000030B4026C1A
:1029D0000B46002A0BD0C1681144C1608468A14233
:1029E00001D30168C16030BC1846FDF726BD30BC7C
:1029F00070472DE9F041856B174604460026026CAE
:102A000082B1C7B1E068FDF718FDE168206C091AD2
:102A1000E1602268914202D2A168081AE060022FA8
:102A200016D017E02068A8B9A06801F0C7F90646DB
:102A30000020A0600EE06068FDF7FFFC216C60687C
:102A400008446060A168884204D32068606001E0A7
:102A500005B16D1E6D1CA5633046BDE8F08110B553
:102A6000044690F8590058B101280CD002280FD024
:102A7000502080F31188BFF34F8FBFF36F8FFEE7B5
:102A8000206B00F053FC2046BDE8104000F04EBC27
:102A900010BD000010484FF47051420706D0C01D11
:102AA0000D4920F00700411AC1F570510B4A00236F
:102AB0000144C2E900030839183A21F00701116006
:102AC0004B600B600B1AC0E9001393604FF000409D
:102AD0005360506170470000D00E00208400002039
:102AE000144E154CA6F29C474FF08058DFF84C90DE
:102AF00012E000BF00F0E6FBF068C568281D00F09A
:102B000085FBA068401EA0606068401E606000F009
:102B1000F9FB2846FFF7A3FF60680028EAD1386870
:102B20000128F9D9C9F80080BFF34F8FBFF36F8F29
:102B3000F2E70000D80600201800002004ED00E0B5
:102B400070B51D46049C51B1C4F80020C4E90F01C2
:102B50000121204600F038FE84F84C5070BD2460FE
:102B6000F4E700002DE9F05F8846DDE90B94154697
:102B7000834691009A460A9EA522206BFDF7A2FC8F
:102B80006FF00301206B01EB8501084420F007077B
:102B9000780707D0502080F31188BFF34F8FBFF321
:102BA0006F8FFEE70025B8F1000F0FD05FF0000037
:102BB000221818F8001082F8341018F8001011B11B
:102BC000401C1028F4D384F8435001E084F83450BA
:102BD000382E00D33726E662C4E91365201D00F0C5
:102BE0004AFB04F1180000F046FB2461C6F13800EE
:102BF0006462A061656584F858505246594638466B
:102C000000F05AFA2060B9F1000F01D0C9F8004075
:102C1000BDE8F09F30B5114900E011460A688242D4
:102C2000FBD34B685C18844203D140681844486069
:102C3000084643681C18944209D1084C183C246883
:102C4000A24209D052681A4442600A6812680260BF
:102C5000814200D0086030BD0460F9E784000020A4
:102C600070B5002441600B4D0061914206D8D11A25
:102C70008269914206D2011D286907E09A4203D277
:102C8000994201D3012403E0011DE86800F0F6FA3F
:102C9000204670BD5400002010B5044600F012FB21
:102CA000A06B28B15FF0000400F02CFB204610BDA3
:102CB0000124F9E730B589B03C4D6EE00498002856
:102CC00006DADDE90601059A90470498002864DBDE
:102CD000069C606910B1201D00F098FA03A800F06E
:102CE000D7F8024604980A2857D2DFE800F0050515
:102CF000052D334A05052D3394F8280040F00100D6
:102D000084F828000599A069059B01442046FFF737
:102D1000A7FF68B3216A2046884794F82800400737
:102D20003BD5002000900598A16900234218194660
:102D3000204601F04DF9D8B9502080F31188BFF337
:102D40004F8FBFF36F8FFEE714F8280F20F00100BC
:102D5000207022E094F8280040F0010084F8280058
:102D60000598A06128B1811813462046FFF778FF27
:102D700013E0502080F31188BFF34F8FBFF36F8FA4
:102D8000FEE794F82800810703D4204600F0CEFA2D
:102D900003E020F0010084F82800002204A928683C
:102DA00000F066FE002889D109B030BD5400002033
:102DB0002DE9FC410F46054600F008FC01A800F093
:102DC00067F80446019818B101F070F8BDE8FC817D
:102DD000254EAFB130690068D0B30027291B3A46B1
:102DE000306800F025FB01F061F80028EED11F49A2
:102DF0004FF080500860BFF34F8FBFF36F8FE5E750
:102E0000A542EBD801F052F8F0682746C068C468C4
:102E1000201D00F0FBF994F82800410719D5A0699E
:102E20002B4641193A462046FFF71AFFA8B1002069
:102E30000346014600902A46204601F0C9F860B9D1
:102E4000502080F31188BFF34F8FBFF36F8FFEE7E1
:102E500007E020F0010084F82800216A2046884716
:102E6000B4E70127BAE700005400002004ED00E0B9
:102E70000648416B096829B1416BC968C96849684E
:102E8000816270474FF0FF31FAE700001800002020
:102E900070B5054600F028FF064E0446B06884422F
:102EA00003D200F009F8012000E00020286020464D
:102EB000B46070BD54000020F8B5194D20E0C06822
:102EC000C4680668201D00F0A1F9216A20468847E1
:102ED00094F82800400713D5A0693044B04206D9C1
:102EE00024616060211DE86800F0C8F908E0002056
:102EF0000346014600903246204601F069F838B199
:102F0000E86801680029DAD12969C5E90310F8BD2C
:102F1000502080F31188BFF34F8FBFF36F8FFEE710
:102F20005400002008484068401C4FF0500080F3D7
:102F3000118804D0BFF34F8FBFF36F8FFEE7BFF34D
:102F40004F8FBFF36F8FFEE78C000020074CE068C7
:102F5000016841B1C0680021D0F80000FFF728FFE8
:102F6000FFF7A8FEF3E701210020F7E75400002057
:102F70002DE9F041044600F0A5F994F9455004F11B
:102F8000240609E0606A48B1304600F057FF08B1F6
:102F900000F09EFA6D1E6DB2002DF3DC4FF0FF368F
:102FA00084F8456000F0AEF900F08CF994F94450D3
:102FB00004F1100709E0206948B1384600F03EFFEF
:102FC00008B100F085FA6D1E6DB2002DF3DC84F8B7
:102FD0004460BDE8F04100F095B900002DE9F041F2
:102FE0000546002700F0F2FA324E306808B9FFF7C4
:102FF00051FD706905424ED1C5B3083568070ED042
:1030000005F00700C0F108000544680707D050200C
:1030100080F31188BFF34F8FBFF36F8FFEE72DB39F
:103020007068854237D82348183001460C6801E0A3
:1030300020460C466168A94202D221680029F7D1D6
:1030400031688C4227D007682168016060680837C2
:10305000411B10290FD96019420708D0502080F376
:103060001188BFF34F8FBFF36F8FFEE713E041600E
:103070006560FFF7CFFD61687068401A7060B268E4
:10308000904200D2B060706901430020C4E90001A1
:10309000F068401CF06000F009FF780707D050206E
:1030A00080F31188BFF34F8FBFF36F8FFEE7384671
:1030B000BDE8F0816C00002010B5031F4FF0807454
:1030C0001C601B1F21F001011960191F044B0B60CC
:1030D00014390A60091F6FF0020244380A6010BDFB
:1030E000252F00088CB0FEF7DDFF6846FEF7C4FF11
:1030F0002C2269460348FDF7A0F9322000F0BAF906
:10310000F3E700004C4B002070B5040009D041B13A
:103110003AB1E06B28B194F84200202803D0022095
:1031200070BD012070BDA162A285E28500206064AF
:10313000222084F842002068436923F04003436161
:10314000134620680A46E56B011D2846FDF746FE3A
:1031500018B1202084F84200E3E72068416941F07B
:1031600040014161002070BD01680A68D20604D5A3
:10317000C968C90601D500F001B8704710B504460A
:1031800000688CB0016840680B901E48006884425B
:1031900035D1E06B002832D00068016821F00101D0
:1031A0000160E06B00680168C907FCD1FFF7B1FA64
:1031B000122805D0E06B0068FFF7ABFA0B2810D19E
:1031C00011496846FEF782FF30B10F482C2269464C
:1031D0002430FDF732F904E00B4858212430FDF784
:1031E00079F9E16B242009684860E16B09680A6895
:1031F00042F001020A60E085222084F842000CB00F
:1032000010BD000098000020D04A0020D0E9013213
:1032100001699A60D0E901235A604A68824201D16B
:1032200082684A60002202610868401E08600868DF
:1032300070470000034B036003F15C0008608020CE
:103240001060704718080020044B036003F15C0015
:1032500008604FF48070106070470000740A00200E
:1032600000F108014FF0FF32C0E90112C1600161B5
:1032700000210160704700210161704730B50B6883
:103280005A1C02D000F1080202E0026904E0224662
:10329000546825689D42FAD953684B6099608A60EA
:1032A000516008610168491C016030BD42684A6094
:1032B00093688B6093685960916008610168491C4C
:1032C00001607047502080F31188BFF34F8FBFF328
:1032D0006F8F0A494868401C486001280CD1084893
:1032E000006810F0FF0F07D0502080F31188BFF363
:1032F0004F8FBFF36F8FFEE7704700008C000020F8
:1033000004ED00E00849486828B1401E486001D13A
:1033100080F311887047502080F31188BFF34F8FDE
:10332000BFF36F8FFEE700008C00002070B500280F
:103330002AD0164DA0F1080460686969084207D1D7
:10334000502080F31188BFF34F8FBFF36F8FFEE7DC
:1033500022683AB1502080F31188BFF34F8FBFF33A
:103360006F8FFEE78843606000F030F9606869683D
:10337000084468602046FFF74DFC2869401C28611E
:10338000BDE8704000F092BD70BD00006C000020F0
:103390004FF0E02000210161816105494FF47A720C
:1033A0000968B1FBF2F1491E4161072101617047D3
:1033B0001400002010B5FCF7A5FF114910280ED30A
:1033C00000F1E02090F8F0030A78904207D25020F4
:1033D00080F31188BFF34F8FBFF36F8FFEE709486B
:1033E0000068896800F4E060884207D9502080F3C3
:1033F0001188BFF34F8FBFF36F8FFEE710BD000042
:103400008C0000200CED00E010B5084B002200BF3E
:1034100053F832401CB1521C082AF9D310BD43F8AE
:10342000321003EBC201486010BD0000FC01002017
:1034300070B515460E460446FFF744FF94F9441054
:103440000020491C01D184F8440094F94510491C1E
:1034500001D184F84500FFF755FFA06B28B92A4633
:10346000314604F1240000F051F82046BDE87040D8
:10347000FFF77EBD10B5020014D00F48006B38B1C5
:10348000502080F31188BFF34F8FBFF36F8FFEE79B
:1034900000F09CF800211046FFF7D6F900F006FD79
:1034A000002807D105494FF080500860BFF34F8FC7
:1034B000BFF36F8F10BD00001800002004ED00E086
:1034C00002490A6A0260C96841607047180000201A
:1034D00001490120C86170471800002010B50C4652
:1034E00050B1094909681831FFF7C8FE2046BDE808
:1034F00010400121FFF7A8B9502080F31188BFF3D5
:103500004F8FBFF36F8FFEE71800002070B5144691
:103510000D4668B10A4909681831FFF7C7FE0CB1BA
:103520004FF0FF3521462846BDE87040FFF78CB9C3
:10353000502080F31188BFF34F8FBFF36F8FFEE7EA
:103540001800002030B587B00024039405AA04A910
:1035500003A80494FFF76EFEDDE903010094CDE9B2
:103560000110002315A11748059A00F084FB164DA1
:103570000028E8621FD000F0FBFC012809D0401CA5
:1035800019D1502080F31188BFF34F8FBFF36F8F95
:10359000FEE7502080F31188BFF34F8FBFF36F8F8A
:1035A0004FF0FF30A86201206861EC6007B0BDE811
:1035B000304000F045B807B030BD000049444C45EC
:1035C00000000000E12A0008180000200248016BFA
:1035D000491C01637047000018000020164810B510
:1035E000016B11B10121C16110BD0021C1610169EF
:1035F000124A01E0B9B1491E01EB810352F82330B0
:10360000002BF7D001EB810302EB830202F10804E7
:1036100053685B685360A34201D15B685360DA680A
:103620000260016110BD502080F31188BFF34F8FFD
:10363000BFF36F8FFEE70000180000203C0200205F
:103640001CB537480168374A914207D1502080F3B2
:103650001188BFF34F8FBFF36F8FFEE700683149CA
:10366000491E884207D1502080F31188BFF34F8F45
:10367000BFF36F8FFEE72C4908780190FF20087098
:1036800008788DF800009DF800009DF8002000F0FB
:10369000F000904207D0502080F31188BFF34F8F85
:1036A000BFF36F8FFEE79DF80000204C00F0500044
:1036B00020700720A06005E09DF8002052008DF8E2
:1036C0000020401E9DF800201206F5D4A0600328BB
:1036D00007D0502080F31188BFF34F8FBFF36F8F57
:1036E000FEE74FF44070A060019808700C4820304D
:1036F000016841F470010160016841F070410160AE
:10370000FFF746FE00206060FCF7C4FD0848016832
:1037100041F040410160FCF7A9FD00201CBD000004
:1037200000ED00E071C20F4100E400E08C000020D9
:1037300034EF00E010B5502080F31188BFF34F8FB5
:10374000BFF36F8F00F0D6FA18B104494FF08050E4
:103750000860002080F3118810BD000004ED00E037
:1037600038B5049D18B153B1CAB181B120E05020E1
:1037700080F31188BFF34F8FBFF36F8FFEE75020A8
:1037800080F31188BFF34F8FBFF36F8FFEE7502098
:1037900080F31188BFF34F8FBFF36F8FFEE739B10E
:1037A000502080F31188BFF34F8FBFF36F8FFEE778
:1037B00050241C46012384F846302B460094FFF722
:1037C000BFF9204638BD000070B50D46040025D075
:1037D000FFF778FDD4E90F20216802FB0011A160FA
:1037E0000021A163216861600A46D4E90F01401EEF
:1037F00000FB0121E16021464FF0FF3001F8440F4A
:10380000487004F110008DB1FFF72AFD04F1240087
:10381000FFF726FDFFF776FD012070BD502080F3F5
:103820001188BFF34F8FBFF36F8FFEE72169002927
:10383000F0D000F003FB0028ECD004494FF080509A
:103840000860BFF34F8FBFF36F8FE3E704ED00E035
:103850002DE9FF4782B01D468A464FF0000804005C
:1038600003D0BAF1000F08D011E0502080F3118886
:10387000BFF34F8FBFF36F8FFEE7206C38B150203E
:1038800080F31188BFF34F8FBFF36F8FFEE7022DD8
:103890000AD1E06B012807D0502080F31188BFF3D4
:1038A0004F8FBFF36F8FFEE700F010FA3F4F4FF0DE
:1038B00000094FF0805648B9049838B1502080F381
:1038C0001188BFF34F8FBFF36F8FFEE7FFF7FAFC4E
:1038D000A06BE16B884207D3022D05D00498D0B1CC
:1038E000B8F1000F1AD01EE02A4651462046FFF7D5
:1038F00080F8616A19B104F1240000F09FFA20B148
:103900003E60BFF34F8FBFF36F8FFFF7FBFC0120CB
:1039100006B0BDE8F087FFF7F5FC22E06846FFF748
:10392000CFFD4FF00108FFF7EDFCFFF74FFEFFF76B
:10393000C9FC94F94400401C01D184F8449094F9E6
:103940004500401C01D184F84590FFF7DBFC04A939
:10395000684600F029F930B12046FFF709FB00F076
:10396000A5FA0020D4E7FFF7ADFCA06BE16B88421D
:1039700013D1FFF7C7FC04F110000499FFF7AEFD67
:103980002046FFF7F5FA00F091FA00289ED13E603C
:10399000BFF34F8FBFF36F8F98E7FFF7B3FC20465D
:1039A000FFF7E6FA00F082FA90E7000004ED00E08D
:1039B0002DE9F0471F4690468946040003D0B9F12F
:1039C000000F08D011E0502080F31188BFF34F8F13
:1039D000BFF36F8FFEE7206C38B1502080F3118861
:1039E000BFF34F8FBFF36F8FFEE7022F0AD1E06B5B
:1039F000012807D0502080F31188BFF34F8FBFF309
:103A00006F8FFEE7FFF7D6FC5020EFF3118680F3AF
:103A10001188BFF34F8FBFF36F8FA06BE16B8842AC
:103A200006D3022F04D0002086F31188BDE8F0876A
:103A300094F94550A06B3A4649462046FEF7D9FF17
:103A4000681C04D06D1C84F845500120ECE7606AC6
:103A50000028FAD004F1240000F0F0F90028F4D096
:103A6000B8F1000FF1D00121C8F80010EDE7000017
:103A70002DE9F747002683B08A46040003D0BAF147
:103A8000000F08D011E0502080F31188BFF34F8F52
:103A9000BFF36F8FFEE7206C38B1502080F31188A0
:103AA000BFF34F8FBFF36F8FFEE700F00FF9DFF822
:103AB000F4804FF000094FF0805748B9059838B1AD
:103AC000502080F31188BFF34F8FBFF36F8FFEE755
:103AD000FFF7F8FBA56BC5B151462046FEF776FF10
:103AE0006D1EA563206950B104F1100000F0A6F925
:103AF00028B1C8F80070BFF34F8FBFF36F8FFFF787
:103B000001FC012006B0BDE8F087059808B11EB1A0
:103B100006E0FFF7F7FB27E06846FFF7D1FC012638
:103B2000FFF7F0FBFFF752FDFFF7CCFB94F94400E1
:103B3000401C01D184F8449094F94500401C01D107
:103B400084F84590FFF7DEFB05A9684600F02CF8E5
:103B5000002820460AD0FFF70BFA00F0A7F920460C
:103B6000FFF79AF80028B3D00020CBE7FFF794F8CE
:103B700090B104F124000599FFF7B0FC2046FFF74F
:103B8000F7F900F093F90028A2D1C8F80070BFF34C
:103B90004F8FBFF36F8F9BE72046FFF7E9F900F0E7
:103BA00085F995E704ED00E02DE9F0410C460500AC
:103BB00011D0C4B1FFF786FB174BDA686E68206836
:103BC000911B471C17D02F681B6A9F4219D0964241
:103BD00017D8012410E0502080F31188BFF34F8FD5
:103BE000BFF36F8FFEE7502080F31188BFF34F8F34
:103BF000BFF36F8FFEE70024FFF784FB2046BDE88C
:103C0000F081884205D9401A20602846FFF758FC09
:103C1000F1E700202060DCE7180000202DE9FF5FBD
:103C20008346DDE90E87994616468A469000FFF7DF
:103C3000D5F905001CD05C20FFF7D0F9040014D0A2
:103C40000020256384F85900CDE90240CDE90087C2
:103C50004B46324651465846FEF784FF2046FEF753
:103C600021FE012004B0BDE8F09F2846FFF75EFB6F
:103C70004FF0FF30F6E7F0B585B0DDE90B640A9D43
:103C8000A6B1DCB15C2700972663022684F8596050
:103C9000002604AFCDE90246CDE90057FEF762FFEA
:103CA0002046FEF7FFFD049805B0F0BD502080F3DC
:103CB0001188BFF34F8FBFF36F8FFEE7502080F363
:103CC0001188BFF34F8FBFF36F8FFEE7054841693F
:103CD00019B1006B18B10020704701207047022015
:103CE00070470000180000200148C06870470000BD
:103CF000180000202DE9F0412E4C0027206B28B140
:103D0000A069401CA0613846BDE8F081E668761CD9
:103D1000E66013D1606B006838B1502080F31188E1
:103D2000BFF34F8FBFF36F8FFEE7606BA16B6163D3
:103D3000A063206A401C2062FFF79AF8A06ADFF8AF
:103D40007880864209D3606B0068A0B1606BC06860
:103D5000C5686868864211D2A0622068C06A00EB1C
:103D6000800158F82100012800D90127E0690028C6
:103D7000C9D00127C7E74FF0FF30EDE7281DFFF757
:103D800045FAA86A18B105F11800FFF73FFAE86A8A
:103D90002169884200D9206100EB800108EB810095
:103DA000291DFFF783FAE86A2168C96A8842CAD3E5
:103DB0000127C8E7180000203C02002070B504006D
:103DC0004FF0000133D01B4D2868844207D05020AB
:103DD00080F31188BFF34F8FBFF36F8FFEE7206D25
:103DE00038B1401E2065E36CE26A9A421FD040B1B0
:103DF0001DE0502080F31188BFF34F8FBFF36F8F0A
:103E0000FEE7201DFFF702FAE06CE062C0F1380027
:103E1000A061E06A2969884200D92861064900EB5F
:103E2000800001EB8000211DFFF740FA01210846C8
:103E300070BD0000180000203C02002070B5C06872
:103E4000C46854B104F118000646FFF7DFF9144DB9
:103E5000286B50B13146134815E0502080F311888B
:103E6000BFF34F8FBFF36F8FFEE7201DFFF7CEF933
:103E7000E06A2969884200D928610B4900EB80007B
:103E800001EB8000211DFFF711FAE06A2968C96A79
:103E9000884202D90120E86170BD002070BD000099
:103EA00018000020C40600203C0200202DE9F04745
:103EB0002C4D00242746286B38B1FFF703FA286BF6
:103EC000401E2863286B40B146E0502080F31188E3
:103ED000BFF34F8FBFF36F8FFEE7A968224E01201B
:103EE000D1B3A6F5916980463068E0B1F068C46846
:103EF00004F11800FFF78AF9201DFFF787F9E06A3F
:103F00002969884200D9286100EB800109EB810012
:103F1000211DFFF7CBF9E06A2968C96A8842E3D31B
:103F2000C5F81C80E0E70CB1FEF7A2FFAC694CB10C
:103F30004FEA0806FFF7DEFE00B1EE61641EF9D11C
:103F40000020A861E86938B10849012738070860EE
:103F5000BFF34F8FBFF36F8FFFF7D4F93846BDE83B
:103F6000F087000018000020C406002004ED00E0E7
:103F700010B586B0FEF7FEFC114C2068B8B10020E9
:103F80000390049005AA04A903A8FFF75DF9DDE9F1
:103F9000032102208DE8070000230AA10B48059A9F
:103FA000FFF769FE606010B106B0012010BD50201F
:103FB00080F31188BFF34F8FBFF36F8FFEE70000D0
:103FC00054000020546D7220537663004D2F00087A
:103FD0002DE9FF411E46134602000A9D4FF00000E6
:103FE00016D0144C2768002F0FD0CDE90013029291
:103FF000062917DAFFF76AFE02284FF000030FD0F8
:10400000002269462068FFF723FC04B0BDE8F08178
:10401000502080F31188BFF34F8FBFF36F8FFEE7FF
:104020002A46EEE70023324669463846FFF7C0FCD1
:10403000EBE70000540000204FF04070E1EE100A62
:1040400070470000AC4000080000000000000000C5
:104050000000000000000000000200001800000046
:104060000000000000000000B84000080000000050
:10407000000000000000000000000000000200003E
:1040800019000000000000000000000000061016EB
:1040900000061016000000000000000001020304EA
:1040A0000607080900000000010203046465666158
:1040B000756C745461736B0072635F7461736B0031
:1040C000E0400008000000209C000000E80100081B
:1040D0007C4100089C0000203C51000004020008C4
:1040E00000000000000000000100000010000000BF
:1040F000000000000024F4000000000000000000A8
:1041000000000000000000000000000000000000AF
:10411000000000000000000000000000000000009F
:10412000000000000000000000000000000000008F
:10413000000000000000000000000000000000007F
:10414000000000000000000000000000000000006F
:10415000000000000000000000000000000000005F
:10416000000000000000000000000000000000004F
:0C417000AAAAAAAA000000000C0100206E
:04000005080001AD41
:00000001FF
